:100000000C9434000C9446000C945F000C94460051
:100010000C9446000C9446000C9446000C94460048
:100020000C9446000C9446000C9446000C94460038
:100030000C9446000C9446000C9446000C94460028
:100040000C9446000C9446000C9446000C94460018
:100050000C9446000C9446000C9446000C94460008
:100060000C9446000C94460011241FBECFEFD8E03C
:10007000DEBFCDBF21E0A0E0B1E001C01D92A23003
:10008000B207E1F70E9448000C949B000C9400001A
:10009000F8948AB1877F8AB98BB188608BB9E9E619
:1000A000F0E080818860808380818B7F80838DB346
:1000B00082608DBB84B1806284B97894FFCF1F9237
:1000C0000F920FB60F9211242F938F939F9310923C
:1000D00001011092000121C085B1806285B92FEF26
:1000E00089E698E1215080409040E1F700C000008F
:1000F00085B18F7D85B92FEF89E698E12150804049
:100100009040E1F700C00000809100019091010152
:1001100002969093010180930001809100019091DB
:1001200001014497CCF29F918F912F910F900FBEB8
:0A0130000F901F901895F894FFCF70
:00000001FF
